{
  "_format": "hh-sol-artifact-1",
  "contractName": "DRAW_ON_CHAIN",
  "sourceName": "contracts/DRAW_ON_CHAIN.sol",
  "abi": [
    {
      "inputs": [],
      "stateMutability": "nonpayable",
      "type": "constructor"
    },
    {
      "anonymous": false,
      "inputs": [
        {
          "indexed": true,
          "internalType": "address",
          "name": "owner",
          "type": "address"
        },
        {
          "indexed": true,
          "internalType": "address",
          "name": "approved",
          "type": "address"
        },
        {
          "indexed": true,
          "internalType": "uint256",
          "name": "tokenId",
          "type": "uint256"
        }
      ],
      "name": "Approval",
      "type": "event"
    },
    {
      "anonymous": false,
      "inputs": [
        {
          "indexed": true,
          "internalType": "address",
          "name": "owner",
          "type": "address"
        },
        {
          "indexed": true,
          "internalType": "address",
          "name": "operator",
          "type": "address"
        },
        {
          "indexed": false,
          "internalType": "bool",
          "name": "approved",
          "type": "bool"
        }
      ],
      "name": "ApprovalForAll",
      "type": "event"
    },
    {
      "anonymous": false,
      "inputs": [
        {
          "indexed": true,
          "internalType": "address",
          "name": "previousOwner",
          "type": "address"
        },
        {
          "indexed": true,
          "internalType": "address",
          "name": "newOwner",
          "type": "address"
        }
      ],
      "name": "OwnershipTransferred",
      "type": "event"
    },
    {
      "anonymous": false,
      "inputs": [
        {
          "indexed": true,
          "internalType": "address",
          "name": "from",
          "type": "address"
        },
        {
          "indexed": true,
          "internalType": "address",
          "name": "to",
          "type": "address"
        },
        {
          "indexed": true,
          "internalType": "uint256",
          "name": "tokenId",
          "type": "uint256"
        }
      ],
      "name": "Transfer",
      "type": "event"
    },
    {
      "inputs": [
        {
          "internalType": "address",
          "name": "to",
          "type": "address"
        },
        {
          "internalType": "uint256",
          "name": "tokenId",
          "type": "uint256"
        }
      ],
      "name": "approve",
      "outputs": [],
      "stateMutability": "nonpayable",
      "type": "function"
    },
    {
      "inputs": [
        {
          "internalType": "address",
          "name": "owner",
          "type": "address"
        }
      ],
      "name": "balanceOf",
      "outputs": [
        {
          "internalType": "uint256",
          "name": "",
          "type": "uint256"
        }
      ],
      "stateMutability": "view",
      "type": "function"
    },
    {
      "inputs": [
        {
          "internalType": "uint256",
          "name": "tokenId",
          "type": "uint256"
        }
      ],
      "name": "burnToken",
      "outputs": [],
      "stateMutability": "nonpayable",
      "type": "function"
    },
    {
      "inputs": [
        {
          "internalType": "uint256",
          "name": "tokenId",
          "type": "uint256"
        }
      ],
      "name": "getApproved",
      "outputs": [
        {
          "internalType": "address",
          "name": "",
          "type": "address"
        }
      ],
      "stateMutability": "view",
      "type": "function"
    },
    {
      "inputs": [],
      "name": "getNumberOfTokensBurned",
      "outputs": [
        {
          "internalType": "uint256",
          "name": "",
          "type": "uint256"
        }
      ],
      "stateMutability": "view",
      "type": "function"
    },
    {
      "inputs": [],
      "name": "getNumberOfTokensCreated",
      "outputs": [
        {
          "internalType": "uint256",
          "name": "",
          "type": "uint256"
        }
      ],
      "stateMutability": "view",
      "type": "function"
    },
    {
      "inputs": [
        {
          "internalType": "uint256",
          "name": "tokenId",
          "type": "uint256"
        }
      ],
      "name": "getTokenMetaData",
      "outputs": [
        {
          "internalType": "string",
          "name": "",
          "type": "string"
        }
      ],
      "stateMutability": "view",
      "type": "function"
    },
    {
      "inputs": [
        {
          "internalType": "address",
          "name": "owner",
          "type": "address"
        },
        {
          "internalType": "address",
          "name": "operator",
          "type": "address"
        }
      ],
      "name": "isApprovedForAll",
      "outputs": [
        {
          "internalType": "bool",
          "name": "",
          "type": "bool"
        }
      ],
      "stateMutability": "view",
      "type": "function"
    },
    {
      "inputs": [
        {
          "internalType": "address",
          "name": "to",
          "type": "address"
        },
        {
          "internalType": "string",
          "name": "metadata",
          "type": "string"
        }
      ],
      "name": "mint",
      "outputs": [],
      "stateMutability": "nonpayable",
      "type": "function"
    },
    {
      "inputs": [],
      "name": "name",
      "outputs": [
        {
          "internalType": "string",
          "name": "",
          "type": "string"
        }
      ],
      "stateMutability": "view",
      "type": "function"
    },
    {
      "inputs": [],
      "name": "owner",
      "outputs": [
        {
          "internalType": "address",
          "name": "",
          "type": "address"
        }
      ],
      "stateMutability": "view",
      "type": "function"
    },
    {
      "inputs": [
        {
          "internalType": "uint256",
          "name": "tokenId",
          "type": "uint256"
        }
      ],
      "name": "ownerOf",
      "outputs": [
        {
          "internalType": "address",
          "name": "",
          "type": "address"
        }
      ],
      "stateMutability": "view",
      "type": "function"
    },
    {
      "inputs": [],
      "name": "renounceOwnership",
      "outputs": [],
      "stateMutability": "nonpayable",
      "type": "function"
    },
    {
      "inputs": [
        {
          "internalType": "address",
          "name": "from",
          "type": "address"
        },
        {
          "internalType": "address",
          "name": "to",
          "type": "address"
        },
        {
          "internalType": "uint256",
          "name": "tokenId",
          "type": "uint256"
        }
      ],
      "name": "safeTransferFrom",
      "outputs": [],
      "stateMutability": "nonpayable",
      "type": "function"
    },
    {
      "inputs": [
        {
          "internalType": "address",
          "name": "from",
          "type": "address"
        },
        {
          "internalType": "address",
          "name": "to",
          "type": "address"
        },
        {
          "internalType": "uint256",
          "name": "tokenId",
          "type": "uint256"
        },
        {
          "internalType": "bytes",
          "name": "data",
          "type": "bytes"
        }
      ],
      "name": "safeTransferFrom",
      "outputs": [],
      "stateMutability": "nonpayable",
      "type": "function"
    },
    {
      "inputs": [
        {
          "internalType": "address",
          "name": "operator",
          "type": "address"
        },
        {
          "internalType": "bool",
          "name": "approved",
          "type": "bool"
        }
      ],
      "name": "setApprovalForAll",
      "outputs": [],
      "stateMutability": "nonpayable",
      "type": "function"
    },
    {
      "inputs": [
        {
          "internalType": "bytes4",
          "name": "interfaceId",
          "type": "bytes4"
        }
      ],
      "name": "supportsInterface",
      "outputs": [
        {
          "internalType": "bool",
          "name": "",
          "type": "bool"
        }
      ],
      "stateMutability": "view",
      "type": "function"
    },
    {
      "inputs": [],
      "name": "symbol",
      "outputs": [
        {
          "internalType": "string",
          "name": "",
          "type": "string"
        }
      ],
      "stateMutability": "view",
      "type": "function"
    },
    {
      "inputs": [
        {
          "internalType": "uint256",
          "name": "index",
          "type": "uint256"
        }
      ],
      "name": "tokenByIndex",
      "outputs": [
        {
          "internalType": "uint256",
          "name": "",
          "type": "uint256"
        }
      ],
      "stateMutability": "view",
      "type": "function"
    },
    {
      "inputs": [
        {
          "internalType": "address",
          "name": "owner",
          "type": "address"
        },
        {
          "internalType": "uint256",
          "name": "index",
          "type": "uint256"
        }
      ],
      "name": "tokenOfOwnerByIndex",
      "outputs": [
        {
          "internalType": "uint256",
          "name": "",
          "type": "uint256"
        }
      ],
      "stateMutability": "view",
      "type": "function"
    },
    {
      "inputs": [
        {
          "internalType": "uint256",
          "name": "tokenId",
          "type": "uint256"
        }
      ],
      "name": "tokenURI",
      "outputs": [
        {
          "internalType": "string",
          "name": "",
          "type": "string"
        }
      ],
      "stateMutability": "view",
      "type": "function"
    },
    {
      "inputs": [
        {
          "internalType": "uint256",
          "name": "",
          "type": "uint256"
        }
      ],
      "name": "tokens",
      "outputs": [
        {
          "internalType": "string",
          "name": "metadata",
          "type": "string"
        }
      ],
      "stateMutability": "view",
      "type": "function"
    },
    {
      "inputs": [],
      "name": "totalSupply",
      "outputs": [
        {
          "internalType": "uint256",
          "name": "",
          "type": "uint256"
        }
      ],
      "stateMutability": "view",
      "type": "function"
    },
    {
      "inputs": [
        {
          "internalType": "address",
          "name": "from",
          "type": "address"
        },
        {
          "internalType": "address",
          "name": "to",
          "type": "address"
        },
        {
          "internalType": "uint256",
          "name": "tokenId",
          "type": "uint256"
        }
      ],
      "name": "transferFrom",
      "outputs": [],
      "stateMutability": "nonpayable",
      "type": "function"
    },
    {
      "inputs": [
        {
          "internalType": "address",
          "name": "newOwner",
          "type": "address"
        }
      ],
      "name": "transferOwnership",
      "outputs": [],
      "stateMutability": "nonpayable",
      "type": "function"
    },
    {
      "inputs": [],
      "name": "userBlance",
      "outputs": [
        {
          "internalType": "uint256",
          "name": "",
          "type": "uint256"
        }
      ],
      "stateMutability": "view",
      "type": "function"
    }
  ],
  "bytecode": "0x60806040526000600c556000600d553480156200001b57600080fd5b506040518060400160405280600d81526020017f44524157204f4e20434841494e000000000000000000000000000000000000008152506040518060400160405280600b81526020017f445241574f4e434841494e0000000000000000000000000000000000000000008152508160009080519060200190620000a0929190620001b0565b508060019080519060200190620000b9929190620001b0565b505050620000dc620000d0620000e260201b60201c565b620000ea60201b60201c565b620002c5565b600033905090565b6000600a60009054906101000a900473ffffffffffffffffffffffffffffffffffffffff16905081600a60006101000a81548173ffffffffffffffffffffffffffffffffffffffff021916908373ffffffffffffffffffffffffffffffffffffffff1602179055508173ffffffffffffffffffffffffffffffffffffffff168173ffffffffffffffffffffffffffffffffffffffff167f8be0079c531659141344cd1fd0a4f28419497f9722a3daafe3b4186f6b6457e060405160405180910390a35050565b828054620001be9062000260565b90600052602060002090601f016020900481019282620001e257600085556200022e565b82601f10620001fd57805160ff19168380011785556200022e565b828001600101855582156200022e579182015b828111156200022d57825182559160200191906001019062000210565b5b5090506200023d919062000241565b5090565b5b808211156200025c57600081600090555060010162000242565b5090565b600060028204905060018216806200027957607f821691505b6020821081141562000290576200028f62000296565b5b50919050565b7f4e487b7100000000000000000000000000000000000000000000000000000000600052602260045260246000fd5b61372d80620002d56000396000f3fe608060405234801561001057600080fd5b506004361061018e5760003560e01c806370a08231116100de57806395d89b4111610097578063c87b56dd11610071578063c87b56dd14610497578063d0def521146104c7578063e985e9c5146104e3578063f2fde38b146105135761018e565b806395d89b4114610441578063a22cb4651461045f578063b88d4fde1461047b5761018e565b806370a0823114610391578063715018a6146103c15780637b47ec1a146103cb5780637e350fae146103e757806382b53355146104055780638da5cb5b146104235761018e565b80632a62c37d1161014b5780634f64b2be116101255780634f64b2be146102d15780634f6ccce7146103015780636352211e1461033157806367c623cf146103615761018e565b80632a62c37d146102675780632f745c591461028557806342842e0e146102b55761018e565b806301ffc9a71461019357806306fdde03146101c3578063081812fc146101e1578063095ea7b31461021157806318160ddd1461022d57806323b872dd1461024b575b600080fd5b6101ad60048036038101906101a89190612770565b61052f565b6040516101ba9190612b97565b60405180910390f35b6101cb610541565b6040516101d89190612bb2565b60405180910390f35b6101fb60048036038101906101f691906127ca565b6105d3565b6040516102089190612b30565b60405180910390f35b61022b60048036038101906102269190612730565b610619565b005b610235610731565b6040516102429190612db4565b60405180910390f35b610265600480360381019061026091906125be565b61073e565b005b61026f61079e565b60405161027c9190612db4565b60405180910390f35b61029f600480360381019061029a9190612730565b6107a8565b6040516102ac9190612db4565b60405180910390f35b6102cf60048036038101906102ca91906125be565b61084d565b005b6102eb60048036038101906102e691906127ca565b61086d565b6040516102f89190612bb2565b60405180910390f35b61031b600480360381019061031691906127ca565b610913565b6040516103289190612db4565b60405180910390f35b61034b600480360381019061034691906127ca565b610984565b6040516103589190612b30565b60405180910390f35b61037b600480360381019061037691906127ca565b610a36565b6040516103889190612bb2565b60405180910390f35b6103ab60048036038101906103a69190612551565b610ade565b6040516103b89190612db4565b60405180910390f35b6103c9610b96565b005b6103e560048036038101906103e091906127ca565b610baa565b005b6103ef610c0b565b6040516103fc9190612db4565b60405180910390f35b61040d610c1b565b60405161041a9190612db4565b60405180910390f35b61042b610c25565b6040516104389190612b30565b60405180910390f35b610449610c4f565b6040516104569190612bb2565b60405180910390f35b61047960048036038101906104749190612694565b610ce1565b005b61049560048036038101906104909190612611565b610cf7565b005b6104b160048036038101906104ac91906127ca565b610d59565b6040516104be9190612bb2565b60405180910390f35b6104e160048036038101906104dc91906126d4565b610db7565b005b6104fd60048036038101906104f8919061257e565b610e23565b60405161050a9190612b97565b60405180910390f35b61052d60048036038101906105289190612551565b610eb7565b005b600061053a82610f3b565b9050919050565b60606000805461055090613064565b80601f016020809104026020016040519081016040528092919081815260200182805461057c90613064565b80156105c95780601f1061059e576101008083540402835291602001916105c9565b820191906000526020600020905b8154815290600101906020018083116105ac57829003601f168201915b5050505050905090565b60006105de82610fb5565b6004600083815260200190815260200160002060009054906101000a900473ffffffffffffffffffffffffffffffffffffffff169050919050565b600061062482610984565b90508073ffffffffffffffffffffffffffffffffffffffff168373ffffffffffffffffffffffffffffffffffffffff161415610695576040517f08c379a000000000000000000000000000000000000000000000000000000000815260040161068c90612d54565b60405180910390fd5b8073ffffffffffffffffffffffffffffffffffffffff166106b4611000565b73ffffffffffffffffffffffffffffffffffffffff1614806106e357506106e2816106dd611000565b610e23565b5b610722576040517f08c379a000000000000000000000000000000000000000000000000000000000815260040161071990612cd4565b60405180910390fd5b61072c8383611008565b505050565b6000600880549050905090565b61074f610749611000565b826110c1565b61078e576040517f08c379a000000000000000000000000000000000000000000000000000000000815260040161078590612d94565b60405180910390fd5b610799838383611156565b505050565b6000600c54905090565b60006107b383610ade565b82106107f4576040517f08c379a00000000000000000000000000000000000000000000000000000000081526004016107eb90612bd4565b60405180910390fd5b600660008473ffffffffffffffffffffffffffffffffffffffff1673ffffffffffffffffffffffffffffffffffffffff168152602001908152602001600020600083815260200190815260200160002054905092915050565b61086883838360405180602001604052806000815250610cf7565b505050565b600b60205280600052604060002060009150905080600001805461089090613064565b80601f01602080910402602001604051908101604052809291908181526020018280546108bc90613064565b80156109095780601f106108de57610100808354040283529160200191610909565b820191906000526020600020905b8154815290600101906020018083116108ec57829003601f168201915b5050505050905081565b600061091d610731565b821061095e576040517f08c379a000000000000000000000000000000000000000000000000000000000815260040161095590612d74565b60405180910390fd5b60088281548110610972576109716131cc565b5b90600052602060002001549050919050565b6000806002600084815260200190815260200160002060009054906101000a900473ffffffffffffffffffffffffffffffffffffffff169050600073ffffffffffffffffffffffffffffffffffffffff168173ffffffffffffffffffffffffffffffffffffffff161415610a2d576040517f08c379a0000000000000000000000000000000000000000000000000000000008152600401610a2490612d34565b60405180910390fd5b80915050919050565b6060600b60008381526020019081526020016000206000018054610a5990613064565b80601f0160208091040260200160405190810160405280929190818152602001828054610a8590613064565b8015610ad25780601f10610aa757610100808354040283529160200191610ad2565b820191906000526020600020905b815481529060010190602001808311610ab557829003601f168201915b50505050509050919050565b60008073ffffffffffffffffffffffffffffffffffffffff168273ffffffffffffffffffffffffffffffffffffffff161415610b4f576040517f08c379a0000000000000000000000000000000000000000000000000000000008152600401610b4690612cb4565b60405180910390fd5b600360008373ffffffffffffffffffffffffffffffffffffffff1673ffffffffffffffffffffffffffffffffffffffff168152602001908152602001600020549050919050565b610b9e6113bd565b610ba8600061143b565b565b3373ffffffffffffffffffffffffffffffffffffffff16610bca82610984565b73ffffffffffffffffffffffffffffffffffffffff161415610c0857610bef81611501565b600d6000815480929190610c02906130c7565b91905055505b50565b6000610c1633610ade565b905090565b6000600d54905090565b6000600a60009054906101000a900473ffffffffffffffffffffffffffffffffffffffff16905090565b606060018054610c5e90613064565b80601f0160208091040260200160405190810160405280929190818152602001828054610c8a90613064565b8015610cd75780601f10610cac57610100808354040283529160200191610cd7565b820191906000526020600020905b815481529060010190602001808311610cba57829003601f168201915b5050505050905090565b610cf3610cec611000565b838361150d565b5050565b610d08610d02611000565b836110c1565b610d47576040517f08c379a0000000000000000000000000000000000000000000000000000000008152600401610d3e90612d94565b60405180910390fd5b610d538484848461167a565b50505050565b60606000610d8d610d6984610a36565b604051602001610d799190612af7565b6040516020818303038152906040526116d6565b905080604051602001610da09190612b0e565b604051602081830303815290604052915050919050565b610dc382600c5461184f565b604051806020016040528082815250600b6000600c5481526020019081526020016000206000820151816000019080519060200190610e03929190612365565b50905050600c6000815480929190610e1a906130c7565b91905055505050565b6000600560008473ffffffffffffffffffffffffffffffffffffffff1673ffffffffffffffffffffffffffffffffffffffff16815260200190815260200160002060008373ffffffffffffffffffffffffffffffffffffffff1673ffffffffffffffffffffffffffffffffffffffff16815260200190815260200160002060009054906101000a900460ff16905092915050565b610ebf6113bd565b600073ffffffffffffffffffffffffffffffffffffffff168173ffffffffffffffffffffffffffffffffffffffff161415610f2f576040517f08c379a0000000000000000000000000000000000000000000000000000000008152600401610f2690612c14565b60405180910390fd5b610f388161143b565b50565b60007f780e9d63000000000000000000000000000000000000000000000000000000007bffffffffffffffffffffffffffffffffffffffffffffffffffffffff1916827bffffffffffffffffffffffffffffffffffffffffffffffffffffffff19161480610fae5750610fad8261186d565b5b9050919050565b610fbe8161194f565b610ffd576040517f08c379a0000000000000000000000000000000000000000000000000000000008152600401610ff490612d34565b60405180910390fd5b50565b600033905090565b816004600083815260200190815260200160002060006101000a81548173ffffffffffffffffffffffffffffffffffffffff021916908373ffffffffffffffffffffffffffffffffffffffff160217905550808273ffffffffffffffffffffffffffffffffffffffff1661107b83610984565b73ffffffffffffffffffffffffffffffffffffffff167f8c5be1e5ebec7d5bd14f71427d1e84f3dd0314c0f7b2291e5b200ac8c7c3b92560405160405180910390a45050565b6000806110cd83610984565b90508073ffffffffffffffffffffffffffffffffffffffff168473ffffffffffffffffffffffffffffffffffffffff16148061110f575061110e8185610e23565b5b8061114d57508373ffffffffffffffffffffffffffffffffffffffff16611135846105d3565b73ffffffffffffffffffffffffffffffffffffffff16145b91505092915050565b8273ffffffffffffffffffffffffffffffffffffffff1661117682610984565b73ffffffffffffffffffffffffffffffffffffffff16146111cc576040517f08c379a00000000000000000000000000000000000000000000000000000000081526004016111c390612c34565b60405180910390fd5b600073ffffffffffffffffffffffffffffffffffffffff168273ffffffffffffffffffffffffffffffffffffffff16141561123c576040517f08c379a000000000000000000000000000000000000000000000000000000000815260040161123390612c74565b60405180910390fd5b6112478383836119bb565b611252600082611008565b6001600360008573ffffffffffffffffffffffffffffffffffffffff1673ffffffffffffffffffffffffffffffffffffffff16815260200190815260200160002060008282546112a29190612f7a565b925050819055506001600360008473ffffffffffffffffffffffffffffffffffffffff1673ffffffffffffffffffffffffffffffffffffffff16815260200190815260200160002060008282546112f99190612e99565b92505081905550816002600083815260200190815260200160002060006101000a81548173ffffffffffffffffffffffffffffffffffffffff021916908373ffffffffffffffffffffffffffffffffffffffff160217905550808273ffffffffffffffffffffffffffffffffffffffff168473ffffffffffffffffffffffffffffffffffffffff167fddf252ad1be2c89b69c2b068fc378daa952ba7f163c4a11628f55a4df523b3ef60405160405180910390a46113b88383836119cb565b505050565b6113c5611000565b73ffffffffffffffffffffffffffffffffffffffff166113e3610c25565b73ffffffffffffffffffffffffffffffffffffffff1614611439576040517f08c379a000000000000000000000000000000000000000000000000000000000815260040161143090612d14565b60405180910390fd5b565b6000600a60009054906101000a900473ffffffffffffffffffffffffffffffffffffffff16905081600a60006101000a81548173ffffffffffffffffffffffffffffffffffffffff021916908373ffffffffffffffffffffffffffffffffffffffff1602179055508173ffffffffffffffffffffffffffffffffffffffff168173ffffffffffffffffffffffffffffffffffffffff167f8be0079c531659141344cd1fd0a4f28419497f9722a3daafe3b4186f6b6457e060405160405180910390a35050565b61150a816119d0565b50565b8173ffffffffffffffffffffffffffffffffffffffff168373ffffffffffffffffffffffffffffffffffffffff16141561157c576040517f08c379a000000000000000000000000000000000000000000000000000000000815260040161157390612c94565b60405180910390fd5b80600560008573ffffffffffffffffffffffffffffffffffffffff1673ffffffffffffffffffffffffffffffffffffffff16815260200190815260200160002060008473ffffffffffffffffffffffffffffffffffffffff1673ffffffffffffffffffffffffffffffffffffffff16815260200190815260200160002060006101000a81548160ff0219169083151502179055508173ffffffffffffffffffffffffffffffffffffffff168373ffffffffffffffffffffffffffffffffffffffff167f17307eab39ab6107e8899845ad3d59bd9653f200f220920489ca2b5937696c318360405161166d9190612b97565b60405180910390a3505050565b611685848484611156565b61169184848484611aed565b6116d0576040517f08c379a00000000000000000000000000000000000000000000000000000000081526004016116c790612bf4565b60405180910390fd5b50505050565b60606000825114156116f95760405180602001604052806000815250905061184a565b60006040518060600160405280604081526020016136b860409139905060006003600285516117289190612e99565b6117329190612eef565b600461173e9190612f20565b9050600060208261174f9190612e99565b67ffffffffffffffff811115611768576117676131fb565b5b6040519080825280601f01601f19166020018201604052801561179a5781602001600182028036833780820191505090505b509050818152600183018586518101602084015b81831015611809576003830192508251603f8160121c168501518253600182019150603f81600c1c168501518253600182019150603f8160061c168501518253600182019150603f81168501518253600182019150506117ae565b60038951066001811461182357600281146118335761183e565b613d3d60f01b600283035261183e565b603d60f81b60018303525b50505050508093505050505b919050565b611869828260405180602001604052806000815250611c84565b5050565b60007f80ac58cd000000000000000000000000000000000000000000000000000000007bffffffffffffffffffffffffffffffffffffffffffffffffffffffff1916827bffffffffffffffffffffffffffffffffffffffffffffffffffffffff1916148061193857507f5b5e139f000000000000000000000000000000000000000000000000000000007bffffffffffffffffffffffffffffffffffffffffffffffffffffffff1916827bffffffffffffffffffffffffffffffffffffffffffffffffffffffff1916145b80611948575061194782611cdf565b5b9050919050565b60008073ffffffffffffffffffffffffffffffffffffffff166002600084815260200190815260200160002060009054906101000a900473ffffffffffffffffffffffffffffffffffffffff1673ffffffffffffffffffffffffffffffffffffffff1614159050919050565b6119c6838383611d49565b505050565b505050565b60006119db82610984565b90506119e9816000846119bb565b6119f4600083611008565b6001600360008373ffffffffffffffffffffffffffffffffffffffff1673ffffffffffffffffffffffffffffffffffffffff1681526020019081526020016000206000828254611a449190612f7a565b925050819055506002600083815260200190815260200160002060006101000a81549073ffffffffffffffffffffffffffffffffffffffff021916905581600073ffffffffffffffffffffffffffffffffffffffff168273ffffffffffffffffffffffffffffffffffffffff167fddf252ad1be2c89b69c2b068fc378daa952ba7f163c4a11628f55a4df523b3ef60405160405180910390a4611ae9816000846119cb565b5050565b6000611b0e8473ffffffffffffffffffffffffffffffffffffffff16611e5d565b15611c77578373ffffffffffffffffffffffffffffffffffffffff1663150b7a02611b37611000565b8786866040518563ffffffff1660e01b8152600401611b599493929190612b4b565b602060405180830381600087803b158015611b7357600080fd5b505af1925050508015611ba457506040513d601f19601f82011682018060405250810190611ba1919061279d565b60015b611c27573d8060008114611bd4576040519150601f19603f3d011682016040523d82523d6000602084013e611bd9565b606091505b50600081511415611c1f576040517f08c379a0000000000000000000000000000000000000000000000000000000008152600401611c1690612bf4565b60405180910390fd5b805181602001fd5b63150b7a0260e01b7bffffffffffffffffffffffffffffffffffffffffffffffffffffffff1916817bffffffffffffffffffffffffffffffffffffffffffffffffffffffff191614915050611c7c565b600190505b949350505050565b611c8e8383611e80565b611c9b6000848484611aed565b611cda576040517f08c379a0000000000000000000000000000000000000000000000000000000008152600401611cd190612bf4565b60405180910390fd5b505050565b60007f01ffc9a7000000000000000000000000000000000000000000000000000000007bffffffffffffffffffffffffffffffffffffffffffffffffffffffff1916827bffffffffffffffffffffffffffffffffffffffffffffffffffffffff1916149050919050565b611d5483838361205a565b600073ffffffffffffffffffffffffffffffffffffffff168373ffffffffffffffffffffffffffffffffffffffff161415611d9757611d928161205f565b611dd6565b8173ffffffffffffffffffffffffffffffffffffffff168373ffffffffffffffffffffffffffffffffffffffff1614611dd557611dd483826120a8565b5b5b600073ffffffffffffffffffffffffffffffffffffffff168273ffffffffffffffffffffffffffffffffffffffff161415611e1957611e1481612215565b611e58565b8273ffffffffffffffffffffffffffffffffffffffff168273ffffffffffffffffffffffffffffffffffffffff1614611e5757611e5682826122e6565b5b5b505050565b6000808273ffffffffffffffffffffffffffffffffffffffff163b119050919050565b600073ffffffffffffffffffffffffffffffffffffffff168273ffffffffffffffffffffffffffffffffffffffff161415611ef0576040517f08c379a0000000000000000000000000000000000000000000000000000000008152600401611ee790612cf4565b60405180910390fd5b611ef98161194f565b15611f39576040517f08c379a0000000000000000000000000000000000000000000000000000000008152600401611f3090612c54565b60405180910390fd5b611f45600083836119bb565b6001600360008473ffffffffffffffffffffffffffffffffffffffff1673ffffffffffffffffffffffffffffffffffffffff1681526020019081526020016000206000828254611f959190612e99565b92505081905550816002600083815260200190815260200160002060006101000a81548173ffffffffffffffffffffffffffffffffffffffff021916908373ffffffffffffffffffffffffffffffffffffffff160217905550808273ffffffffffffffffffffffffffffffffffffffff16600073ffffffffffffffffffffffffffffffffffffffff167fddf252ad1be2c89b69c2b068fc378daa952ba7f163c4a11628f55a4df523b3ef60405160405180910390a4612056600083836119cb565b5050565b505050565b6008805490506009600083815260200190815260200160002081905550600881908060018154018082558091505060019003906000526020600020016000909190919091505550565b600060016120b584610ade565b6120bf9190612f7a565b90506000600760008481526020019081526020016000205490508181146121a4576000600660008673ffffffffffffffffffffffffffffffffffffffff1673ffffffffffffffffffffffffffffffffffffffff168152602001908152602001600020600084815260200190815260200160002054905080600660008773ffffffffffffffffffffffffffffffffffffffff1673ffffffffffffffffffffffffffffffffffffffff168152602001908152602001600020600084815260200190815260200160002081905550816007600083815260200190815260200160002081905550505b6007600084815260200190815260200160002060009055600660008573ffffffffffffffffffffffffffffffffffffffff1673ffffffffffffffffffffffffffffffffffffffff16815260200190815260200160002060008381526020019081526020016000206000905550505050565b600060016008805490506122299190612f7a565b9050600060096000848152602001908152602001600020549050600060088381548110612259576122586131cc565b5b90600052602060002001549050806008838154811061227b5761227a6131cc565b5b9060005260206000200181905550816009600083815260200190815260200160002081905550600960008581526020019081526020016000206000905560088054806122ca576122c961319d565b5b6001900381819060005260206000200160009055905550505050565b60006122f183610ade565b905081600660008573ffffffffffffffffffffffffffffffffffffffff1673ffffffffffffffffffffffffffffffffffffffff168152602001908152602001600020600083815260200190815260200160002081905550806007600084815260200190815260200160002081905550505050565b82805461237190613064565b90600052602060002090601f01602090048101928261239357600085556123da565b82601f106123ac57805160ff19168380011785556123da565b828001600101855582156123da579182015b828111156123d95782518255916020019190600101906123be565b5b5090506123e791906123eb565b5090565b5b808211156124045760008160009055506001016123ec565b5090565b600061241b61241684612df4565b612dcf565b9050828152602081018484840111156124375761243661322f565b5b612442848285613022565b509392505050565b600061245d61245884612e25565b612dcf565b9050828152602081018484840111156124795761247861322f565b5b612484848285613022565b509392505050565b60008135905061249b8161365b565b92915050565b6000813590506124b081613672565b92915050565b6000813590506124c581613689565b92915050565b6000815190506124da81613689565b92915050565b600082601f8301126124f5576124f461322a565b5b8135612505848260208601612408565b91505092915050565b600082601f8301126125235761252261322a565b5b813561253384826020860161244a565b91505092915050565b60008135905061254b816136a0565b92915050565b60006020828403121561256757612566613239565b5b60006125758482850161248c565b91505092915050565b6000806040838503121561259557612594613239565b5b60006125a38582860161248c565b92505060206125b48582860161248c565b9150509250929050565b6000806000606084860312156125d7576125d6613239565b5b60006125e58682870161248c565b93505060206125f68682870161248c565b92505060406126078682870161253c565b9150509250925092565b6000806000806080858703121561262b5761262a613239565b5b60006126398782880161248c565b945050602061264a8782880161248c565b935050604061265b8782880161253c565b925050606085013567ffffffffffffffff81111561267c5761267b613234565b5b612688878288016124e0565b91505092959194509250565b600080604083850312156126ab576126aa613239565b5b60006126b98582860161248c565b92505060206126ca858286016124a1565b9150509250929050565b600080604083850312156126eb576126ea613239565b5b60006126f98582860161248c565b925050602083013567ffffffffffffffff81111561271a57612719613234565b5b6127268582860161250e565b9150509250929050565b6000806040838503121561274757612746613239565b5b60006127558582860161248c565b92505060206127668582860161253c565b9150509250929050565b60006020828403121561278657612785613239565b5b6000612794848285016124b6565b91505092915050565b6000602082840312156127b3576127b2613239565b5b60006127c1848285016124cb565b91505092915050565b6000602082840312156127e0576127df613239565b5b60006127ee8482850161253c565b91505092915050565b61280081612fae565b82525050565b61280f81612fc0565b82525050565b600061282082612e56565b61282a8185612e6c565b935061283a818560208601613031565b6128438161323e565b840191505092915050565b600061285982612e61565b6128638185612e7d565b9350612873818560208601613031565b61287c8161323e565b840191505092915050565b600061289282612e61565b61289c8185612e8e565b93506128ac818560208601613031565b80840191505092915050565b60006128c5602b83612e7d565b91506128d08261324f565b604082019050919050565b60006128e8603283612e7d565b91506128f38261329e565b604082019050919050565b600061290b602683612e7d565b9150612916826132ed565b604082019050919050565b600061292e602583612e7d565b91506129398261333c565b604082019050919050565b6000612951601c83612e7d565b915061295c8261338b565b602082019050919050565b6000612974602483612e7d565b915061297f826133b4565b604082019050919050565b6000612997601983612e7d565b91506129a282613403565b602082019050919050565b60006129ba602983612e7d565b91506129c58261342c565b604082019050919050565b60006129dd603e83612e7d565b91506129e88261347b565b604082019050919050565b6000612a00602083612e7d565b9150612a0b826134ca565b602082019050919050565b6000612a23602083612e7d565b9150612a2e826134f3565b602082019050919050565b6000612a46601883612e7d565b9150612a518261351c565b602082019050919050565b6000612a69602183612e7d565b9150612a7482613545565b604082019050919050565b6000612a8c601d83612e8e565b9150612a9782613594565b601d82019050919050565b6000612aaf602c83612e7d565b9150612aba826135bd565b604082019050919050565b6000612ad2602e83612e7d565b9150612add8261360c565b604082019050919050565b612af181613018565b82525050565b6000612b038284612887565b915081905092915050565b6000612b1982612a7f565b9150612b258284612887565b915081905092915050565b6000602082019050612b4560008301846127f7565b92915050565b6000608082019050612b6060008301876127f7565b612b6d60208301866127f7565b612b7a6040830185612ae8565b8181036060830152612b8c8184612815565b905095945050505050565b6000602082019050612bac6000830184612806565b92915050565b60006020820190508181036000830152612bcc818461284e565b905092915050565b60006020820190508181036000830152612bed816128b8565b9050919050565b60006020820190508181036000830152612c0d816128db565b9050919050565b60006020820190508181036000830152612c2d816128fe565b9050919050565b60006020820190508181036000830152612c4d81612921565b9050919050565b60006020820190508181036000830152612c6d81612944565b9050919050565b60006020820190508181036000830152612c8d81612967565b9050919050565b60006020820190508181036000830152612cad8161298a565b9050919050565b60006020820190508181036000830152612ccd816129ad565b9050919050565b60006020820190508181036000830152612ced816129d0565b9050919050565b60006020820190508181036000830152612d0d816129f3565b9050919050565b60006020820190508181036000830152612d2d81612a16565b9050919050565b60006020820190508181036000830152612d4d81612a39565b9050919050565b60006020820190508181036000830152612d6d81612a5c565b9050919050565b60006020820190508181036000830152612d8d81612aa2565b9050919050565b60006020820190508181036000830152612dad81612ac5565b9050919050565b6000602082019050612dc96000830184612ae8565b92915050565b6000612dd9612dea565b9050612de58282613096565b919050565b6000604051905090565b600067ffffffffffffffff821115612e0f57612e0e6131fb565b5b612e188261323e565b9050602081019050919050565b600067ffffffffffffffff821115612e4057612e3f6131fb565b5b612e498261323e565b9050602081019050919050565b600081519050919050565b600081519050919050565b600082825260208201905092915050565b600082825260208201905092915050565b600081905092915050565b6000612ea482613018565b9150612eaf83613018565b9250827fffffffffffffffffffffffffffffffffffffffffffffffffffffffffffffffff03821115612ee457612ee3613110565b5b828201905092915050565b6000612efa82613018565b9150612f0583613018565b925082612f1557612f1461313f565b5b828204905092915050565b6000612f2b82613018565b9150612f3683613018565b9250817fffffffffffffffffffffffffffffffffffffffffffffffffffffffffffffffff0483118215151615612f6f57612f6e613110565b5b828202905092915050565b6000612f8582613018565b9150612f9083613018565b925082821015612fa357612fa2613110565b5b828203905092915050565b6000612fb982612ff8565b9050919050565b60008115159050919050565b60007fffffffff0000000000000000000000000000000000000000000000000000000082169050919050565b600073ffffffffffffffffffffffffffffffffffffffff82169050919050565b6000819050919050565b82818337600083830152505050565b60005b8381101561304f578082015181840152602081019050613034565b8381111561305e576000848401525b50505050565b6000600282049050600182168061307c57607f821691505b602082108114156130905761308f61316e565b5b50919050565b61309f8261323e565b810181811067ffffffffffffffff821117156130be576130bd6131fb565b5b80604052505050565b60006130d282613018565b91507fffffffffffffffffffffffffffffffffffffffffffffffffffffffffffffffff82141561310557613104613110565b5b600182019050919050565b7f4e487b7100000000000000000000000000000000000000000000000000000000600052601160045260246000fd5b7f4e487b7100000000000000000000000000000000000000000000000000000000600052601260045260246000fd5b7f4e487b7100000000000000000000000000000000000000000000000000000000600052602260045260246000fd5b7f4e487b7100000000000000000000000000000000000000000000000000000000600052603160045260246000fd5b7f4e487b7100000000000000000000000000000000000000000000000000000000600052603260045260246000fd5b7f4e487b7100000000000000000000000000000000000000000000000000000000600052604160045260246000fd5b600080fd5b600080fd5b600080fd5b600080fd5b6000601f19601f8301169050919050565b7f455243373231456e756d657261626c653a206f776e657220696e646578206f7560008201527f74206f6620626f756e6473000000000000000000000000000000000000000000602082015250565b7f4552433732313a207472616e7366657220746f206e6f6e20455243373231526560008201527f63656976657220696d706c656d656e7465720000000000000000000000000000602082015250565b7f4f776e61626c653a206e6577206f776e657220697320746865207a65726f206160008201527f6464726573730000000000000000000000000000000000000000000000000000602082015250565b7f4552433732313a207472616e736665722066726f6d20696e636f72726563742060008201527f6f776e6572000000000000000000000000000000000000000000000000000000602082015250565b7f4552433732313a20746f6b656e20616c7265616479206d696e74656400000000600082015250565b7f4552433732313a207472616e7366657220746f20746865207a65726f2061646460008201527f7265737300000000000000000000000000000000000000000000000000000000602082015250565b7f4552433732313a20617070726f766520746f2063616c6c657200000000000000600082015250565b7f4552433732313a2061646472657373207a65726f206973206e6f74206120766160008201527f6c6964206f776e65720000000000000000000000000000000000000000000000602082015250565b7f4552433732313a20617070726f76652063616c6c6572206973206e6f7420746f60008201527f6b656e206f776e6572206e6f7220617070726f76656420666f7220616c6c0000602082015250565b7f4552433732313a206d696e7420746f20746865207a65726f2061646472657373600082015250565b7f4f776e61626c653a2063616c6c6572206973206e6f7420746865206f776e6572600082015250565b7f4552433732313a20696e76616c696420746f6b656e2049440000000000000000600082015250565b7f4552433732313a20617070726f76616c20746f2063757272656e74206f776e6560008201527f7200000000000000000000000000000000000000000000000000000000000000602082015250565b7f646174613a6170706c69636174696f6e2f6a736f6e3b6261736536342c000000600082015250565b7f455243373231456e756d657261626c653a20676c6f62616c20696e646578206f60008201527f7574206f6620626f756e64730000000000000000000000000000000000000000602082015250565b7f4552433732313a2063616c6c6572206973206e6f7420746f6b656e206f776e6560008201527f72206e6f7220617070726f766564000000000000000000000000000000000000602082015250565b61366481612fae565b811461366f57600080fd5b50565b61367b81612fc0565b811461368657600080fd5b50565b61369281612fcc565b811461369d57600080fd5b50565b6136a981613018565b81146136b457600080fd5b5056fe4142434445464748494a4b4c4d4e4f505152535455565758595a6162636465666768696a6b6c6d6e6f707172737475767778797a303132333435363738392b2fa2646970667358221220d010fdf46d974f9784220897f3c5e28a5501f11ab2aa02699df5b46f7fc1c7cb64736f6c63430008070033",
  "linkReferences": {},
  "deployedLinkReferences": {}
}