{
  "_format": "hh-sol-artifact-1",
  "contractName": "DRAW_ON_CHAIN",
  "sourceName": "contracts/DRAW_ON_CHAIN.sol",
  "abi": [
    {
      "inputs": [],
      "stateMutability": "nonpayable",
      "type": "constructor"
    },
    {
      "anonymous": false,
      "inputs": [
        {
          "indexed": true,
          "internalType": "address",
          "name": "owner",
          "type": "address"
        },
        {
          "indexed": true,
          "internalType": "address",
          "name": "approved",
          "type": "address"
        },
        {
          "indexed": true,
          "internalType": "uint256",
          "name": "tokenId",
          "type": "uint256"
        }
      ],
      "name": "Approval",
      "type": "event"
    },
    {
      "anonymous": false,
      "inputs": [
        {
          "indexed": true,
          "internalType": "address",
          "name": "owner",
          "type": "address"
        },
        {
          "indexed": true,
          "internalType": "address",
          "name": "operator",
          "type": "address"
        },
        {
          "indexed": false,
          "internalType": "bool",
          "name": "approved",
          "type": "bool"
        }
      ],
      "name": "ApprovalForAll",
      "type": "event"
    },
    {
      "anonymous": false,
      "inputs": [
        {
          "indexed": true,
          "internalType": "address",
          "name": "previousOwner",
          "type": "address"
        },
        {
          "indexed": true,
          "internalType": "address",
          "name": "newOwner",
          "type": "address"
        }
      ],
      "name": "OwnershipTransferred",
      "type": "event"
    },
    {
      "anonymous": false,
      "inputs": [
        {
          "indexed": true,
          "internalType": "address",
          "name": "from",
          "type": "address"
        },
        {
          "indexed": true,
          "internalType": "address",
          "name": "to",
          "type": "address"
        },
        {
          "indexed": true,
          "internalType": "uint256",
          "name": "tokenId",
          "type": "uint256"
        }
      ],
      "name": "Transfer",
      "type": "event"
    },
    {
      "inputs": [
        {
          "internalType": "address",
          "name": "to",
          "type": "address"
        },
        {
          "internalType": "uint256",
          "name": "tokenId",
          "type": "uint256"
        }
      ],
      "name": "approve",
      "outputs": [],
      "stateMutability": "nonpayable",
      "type": "function"
    },
    {
      "inputs": [
        {
          "internalType": "address",
          "name": "owner",
          "type": "address"
        }
      ],
      "name": "balanceOf",
      "outputs": [
        {
          "internalType": "uint256",
          "name": "",
          "type": "uint256"
        }
      ],
      "stateMutability": "view",
      "type": "function"
    },
    {
      "inputs": [
        {
          "internalType": "uint256",
          "name": "tokenId",
          "type": "uint256"
        }
      ],
      "name": "getApproved",
      "outputs": [
        {
          "internalType": "address",
          "name": "",
          "type": "address"
        }
      ],
      "stateMutability": "view",
      "type": "function"
    },
    {
      "inputs": [
        {
          "internalType": "address",
          "name": "owner",
          "type": "address"
        },
        {
          "internalType": "address",
          "name": "operator",
          "type": "address"
        }
      ],
      "name": "isApprovedForAll",
      "outputs": [
        {
          "internalType": "bool",
          "name": "",
          "type": "bool"
        }
      ],
      "stateMutability": "view",
      "type": "function"
    },
    {
      "inputs": [
        {
          "internalType": "address",
          "name": "to",
          "type": "address"
        },
        {
          "internalType": "uint256",
          "name": "tokenId",
          "type": "uint256"
        },
        {
          "internalType": "string",
          "name": "metadata",
          "type": "string"
        }
      ],
      "name": "mint",
      "outputs": [],
      "stateMutability": "nonpayable",
      "type": "function"
    },
    {
      "inputs": [],
      "name": "name",
      "outputs": [
        {
          "internalType": "string",
          "name": "",
          "type": "string"
        }
      ],
      "stateMutability": "view",
      "type": "function"
    },
    {
      "inputs": [],
      "name": "owner",
      "outputs": [
        {
          "internalType": "address",
          "name": "",
          "type": "address"
        }
      ],
      "stateMutability": "view",
      "type": "function"
    },
    {
      "inputs": [
        {
          "internalType": "uint256",
          "name": "tokenId",
          "type": "uint256"
        }
      ],
      "name": "ownerOf",
      "outputs": [
        {
          "internalType": "address",
          "name": "",
          "type": "address"
        }
      ],
      "stateMutability": "view",
      "type": "function"
    },
    {
      "inputs": [],
      "name": "renounceOwnership",
      "outputs": [],
      "stateMutability": "nonpayable",
      "type": "function"
    },
    {
      "inputs": [
        {
          "internalType": "address",
          "name": "from",
          "type": "address"
        },
        {
          "internalType": "address",
          "name": "to",
          "type": "address"
        },
        {
          "internalType": "uint256",
          "name": "tokenId",
          "type": "uint256"
        }
      ],
      "name": "safeTransferFrom",
      "outputs": [],
      "stateMutability": "nonpayable",
      "type": "function"
    },
    {
      "inputs": [
        {
          "internalType": "address",
          "name": "from",
          "type": "address"
        },
        {
          "internalType": "address",
          "name": "to",
          "type": "address"
        },
        {
          "internalType": "uint256",
          "name": "tokenId",
          "type": "uint256"
        },
        {
          "internalType": "bytes",
          "name": "data",
          "type": "bytes"
        }
      ],
      "name": "safeTransferFrom",
      "outputs": [],
      "stateMutability": "nonpayable",
      "type": "function"
    },
    {
      "inputs": [
        {
          "internalType": "address",
          "name": "operator",
          "type": "address"
        },
        {
          "internalType": "bool",
          "name": "approved",
          "type": "bool"
        }
      ],
      "name": "setApprovalForAll",
      "outputs": [],
      "stateMutability": "nonpayable",
      "type": "function"
    },
    {
      "inputs": [
        {
          "internalType": "bytes4",
          "name": "interfaceId",
          "type": "bytes4"
        }
      ],
      "name": "supportsInterface",
      "outputs": [
        {
          "internalType": "bool",
          "name": "",
          "type": "bool"
        }
      ],
      "stateMutability": "view",
      "type": "function"
    },
    {
      "inputs": [],
      "name": "symbol",
      "outputs": [
        {
          "internalType": "string",
          "name": "",
          "type": "string"
        }
      ],
      "stateMutability": "view",
      "type": "function"
    },
    {
      "inputs": [
        {
          "internalType": "uint256",
          "name": "index",
          "type": "uint256"
        }
      ],
      "name": "tokenByIndex",
      "outputs": [
        {
          "internalType": "uint256",
          "name": "",
          "type": "uint256"
        }
      ],
      "stateMutability": "view",
      "type": "function"
    },
    {
      "inputs": [
        {
          "internalType": "address",
          "name": "owner",
          "type": "address"
        },
        {
          "internalType": "uint256",
          "name": "index",
          "type": "uint256"
        }
      ],
      "name": "tokenOfOwnerByIndex",
      "outputs": [
        {
          "internalType": "uint256",
          "name": "",
          "type": "uint256"
        }
      ],
      "stateMutability": "view",
      "type": "function"
    },
    {
      "inputs": [
        {
          "internalType": "uint256",
          "name": "tokenId",
          "type": "uint256"
        }
      ],
      "name": "tokenURI",
      "outputs": [
        {
          "internalType": "string",
          "name": "",
          "type": "string"
        }
      ],
      "stateMutability": "view",
      "type": "function"
    },
    {
      "inputs": [
        {
          "internalType": "uint256",
          "name": "",
          "type": "uint256"
        }
      ],
      "name": "tokens",
      "outputs": [
        {
          "internalType": "string",
          "name": "metadata",
          "type": "string"
        }
      ],
      "stateMutability": "view",
      "type": "function"
    },
    {
      "inputs": [],
      "name": "totalSupply",
      "outputs": [
        {
          "internalType": "uint256",
          "name": "",
          "type": "uint256"
        }
      ],
      "stateMutability": "view",
      "type": "function"
    },
    {
      "inputs": [
        {
          "internalType": "address",
          "name": "from",
          "type": "address"
        },
        {
          "internalType": "address",
          "name": "to",
          "type": "address"
        },
        {
          "internalType": "uint256",
          "name": "tokenId",
          "type": "uint256"
        }
      ],
      "name": "transferFrom",
      "outputs": [],
      "stateMutability": "nonpayable",
      "type": "function"
    },
    {
      "inputs": [
        {
          "internalType": "address",
          "name": "newOwner",
          "type": "address"
        }
      ],
      "name": "transferOwnership",
      "outputs": [],
      "stateMutability": "nonpayable",
      "type": "function"
    }
  ],
  "bytecode": "0x60806040523480156200001157600080fd5b506040518060400160405280600d81526020017f44524157204f4e20434841494e000000000000000000000000000000000000008152506040518060400160405280600b81526020017f445241574f4e434841494e000000000000000000000000000000000000000000815250816000908051906020019062000096929190620001a6565b508060019080519060200190620000af929190620001a6565b505050620000d2620000c6620000d860201b60201c565b620000e060201b60201c565b620002bb565b600033905090565b6000600a60009054906101000a900473ffffffffffffffffffffffffffffffffffffffff16905081600a60006101000a81548173ffffffffffffffffffffffffffffffffffffffff021916908373ffffffffffffffffffffffffffffffffffffffff1602179055508173ffffffffffffffffffffffffffffffffffffffff168173ffffffffffffffffffffffffffffffffffffffff167f8be0079c531659141344cd1fd0a4f28419497f9722a3daafe3b4186f6b6457e060405160405180910390a35050565b828054620001b49062000256565b90600052602060002090601f016020900481019282620001d8576000855562000224565b82601f10620001f357805160ff191683800117855562000224565b8280016001018555821562000224579182015b828111156200022357825182559160200191906001019062000206565b5b50905062000233919062000237565b5090565b5b808211156200025257600081600090555060010162000238565b5090565b600060028204905060018216806200026f57607f821691505b602082108114156200028657620002856200028c565b5b50919050565b7f4e487b7100000000000000000000000000000000000000000000000000000000600052602260045260246000fd5b61342a80620002cb6000396000f3fe608060405234801561001057600080fd5b50600436106101375760003560e01c80636352211e116100b8578063a22cb4651161007c578063a22cb46514610362578063b88d4fde1461037e578063c87b56dd1461039a578063d3fc9864146103ca578063e985e9c5146103e6578063f2fde38b1461041657610137565b80636352211e146102bc57806370a08231146102ec578063715018a61461031c5780638da5cb5b1461032657806395d89b411461034457610137565b806323b872dd116100ff57806323b872dd146101f45780632f745c591461021057806342842e0e146102405780634f64b2be1461025c5780634f6ccce71461028c57610137565b806301ffc9a71461013c57806306fdde031461016c578063081812fc1461018a578063095ea7b3146101ba57806318160ddd146101d6575b600080fd5b61015660048036038101906101519190612422565b610432565b60405161016391906128c8565b60405180910390f35b610174610444565b60405161018191906128e3565b60405180910390f35b6101a4600480360381019061019f919061247c565b6104d6565b6040516101b19190612861565b60405180910390f35b6101d460048036038101906101cf9190612373565b61051c565b005b6101de610634565b6040516101eb9190612ae5565b60405180910390f35b61020e6004803603810190610209919061225d565b610641565b005b61022a60048036038101906102259190612373565b6106a1565b6040516102379190612ae5565b60405180910390f35b61025a6004803603810190610255919061225d565b610746565b005b6102766004803603810190610271919061247c565b610766565b60405161028391906128e3565b60405180910390f35b6102a660048036038101906102a1919061247c565b61080c565b6040516102b39190612ae5565b60405180910390f35b6102d660048036038101906102d1919061247c565b61087d565b6040516102e39190612861565b60405180910390f35b610306600480360381019061030191906121f0565b61092f565b6040516103139190612ae5565b60405180910390f35b6103246109e7565b005b61032e6109fb565b60405161033b9190612861565b60405180910390f35b61034c610a25565b60405161035991906128e3565b60405180910390f35b61037c60048036038101906103779190612333565b610ab7565b005b610398600480360381019061039391906122b0565b610acd565b005b6103b460048036038101906103af919061247c565b610b2f565b6040516103c191906128e3565b60405180910390f35b6103e460048036038101906103df91906123b3565b610b9a565b005b61040060048036038101906103fb919061221d565b610beb565b60405161040d91906128c8565b60405180910390f35b610430600480360381019061042b91906121f0565b610c7f565b005b600061043d82610d03565b9050919050565b60606000805461045390612daa565b80601f016020809104026020016040519081016040528092919081815260200182805461047f90612daa565b80156104cc5780601f106104a1576101008083540402835291602001916104cc565b820191906000526020600020905b8154815290600101906020018083116104af57829003601f168201915b5050505050905090565b60006104e182610d7d565b6004600083815260200190815260200160002060009054906101000a900473ffffffffffffffffffffffffffffffffffffffff169050919050565b60006105278261087d565b90508073ffffffffffffffffffffffffffffffffffffffff168373ffffffffffffffffffffffffffffffffffffffff161415610598576040517f08c379a000000000000000000000000000000000000000000000000000000000815260040161058f90612a85565b60405180910390fd5b8073ffffffffffffffffffffffffffffffffffffffff166105b7610dc8565b73ffffffffffffffffffffffffffffffffffffffff1614806105e657506105e5816105e0610dc8565b610beb565b5b610625576040517f08c379a000000000000000000000000000000000000000000000000000000000815260040161061c90612a05565b60405180910390fd5b61062f8383610dd0565b505050565b6000600880549050905090565b61065261064c610dc8565b82610e89565b610691576040517f08c379a000000000000000000000000000000000000000000000000000000000815260040161068890612ac5565b60405180910390fd5b61069c838383610f1e565b505050565b60006106ac8361092f565b82106106ed576040517f08c379a00000000000000000000000000000000000000000000000000000000081526004016106e490612905565b60405180910390fd5b600660008473ffffffffffffffffffffffffffffffffffffffff1673ffffffffffffffffffffffffffffffffffffffff168152602001908152602001600020600083815260200190815260200160002054905092915050565b61076183838360405180602001604052806000815250610acd565b505050565b600b60205280600052604060002060009150905080600001805461078990612daa565b80601f01602080910402602001604051908101604052809291908181526020018280546107b590612daa565b80156108025780601f106107d757610100808354040283529160200191610802565b820191906000526020600020905b8154815290600101906020018083116107e557829003601f168201915b5050505050905081565b6000610816610634565b8210610857576040517f08c379a000000000000000000000000000000000000000000000000000000000815260040161084e90612aa5565b60405180910390fd5b6008828154811061086b5761086a612ec9565b5b90600052602060002001549050919050565b6000806002600084815260200190815260200160002060009054906101000a900473ffffffffffffffffffffffffffffffffffffffff169050600073ffffffffffffffffffffffffffffffffffffffff168173ffffffffffffffffffffffffffffffffffffffff161415610926576040517f08c379a000000000000000000000000000000000000000000000000000000000815260040161091d90612a65565b60405180910390fd5b80915050919050565b60008073ffffffffffffffffffffffffffffffffffffffff168273ffffffffffffffffffffffffffffffffffffffff1614156109a0576040517f08c379a0000000000000000000000000000000000000000000000000000000008152600401610997906129e5565b60405180910390fd5b600360008373ffffffffffffffffffffffffffffffffffffffff1673ffffffffffffffffffffffffffffffffffffffff168152602001908152602001600020549050919050565b6109ef611185565b6109f96000611203565b565b6000600a60009054906101000a900473ffffffffffffffffffffffffffffffffffffffff16905090565b606060018054610a3490612daa565b80601f0160208091040260200160405190810160405280929190818152602001828054610a6090612daa565b8015610aad5780601f10610a8257610100808354040283529160200191610aad565b820191906000526020600020905b815481529060010190602001808311610a9057829003601f168201915b5050505050905090565b610ac9610ac2610dc8565b83836112c9565b5050565b610ade610ad8610dc8565b83610e89565b610b1d576040517f08c379a0000000000000000000000000000000000000000000000000000000008152600401610b1490612ac5565b60405180910390fd5b610b2984848484611436565b50505050565b60606000610b70600b6000858152602001908152602001600020600001604051602001610b5c9190612828565b604051602081830303815290604052611492565b905080604051602001610b83919061283f565b604051602081830303815290604052915050919050565b610ba4838361160b565b604051806020016040528082815250600b60008481526020019081526020016000206000820151816000019080519060200190610be2929190612004565b50905050505050565b6000600560008473ffffffffffffffffffffffffffffffffffffffff1673ffffffffffffffffffffffffffffffffffffffff16815260200190815260200160002060008373ffffffffffffffffffffffffffffffffffffffff1673ffffffffffffffffffffffffffffffffffffffff16815260200190815260200160002060009054906101000a900460ff16905092915050565b610c87611185565b600073ffffffffffffffffffffffffffffffffffffffff168173ffffffffffffffffffffffffffffffffffffffff161415610cf7576040517f08c379a0000000000000000000000000000000000000000000000000000000008152600401610cee90612945565b60405180910390fd5b610d0081611203565b50565b60007f780e9d63000000000000000000000000000000000000000000000000000000007bffffffffffffffffffffffffffffffffffffffffffffffffffffffff1916827bffffffffffffffffffffffffffffffffffffffffffffffffffffffff19161480610d765750610d7582611629565b5b9050919050565b610d868161170b565b610dc5576040517f08c379a0000000000000000000000000000000000000000000000000000000008152600401610dbc90612a65565b60405180910390fd5b50565b600033905090565b816004600083815260200190815260200160002060006101000a81548173ffffffffffffffffffffffffffffffffffffffff021916908373ffffffffffffffffffffffffffffffffffffffff160217905550808273ffffffffffffffffffffffffffffffffffffffff16610e438361087d565b73ffffffffffffffffffffffffffffffffffffffff167f8c5be1e5ebec7d5bd14f71427d1e84f3dd0314c0f7b2291e5b200ac8c7c3b92560405160405180910390a45050565b600080610e958361087d565b90508073ffffffffffffffffffffffffffffffffffffffff168473ffffffffffffffffffffffffffffffffffffffff161480610ed75750610ed68185610beb565b5b80610f1557508373ffffffffffffffffffffffffffffffffffffffff16610efd846104d6565b73ffffffffffffffffffffffffffffffffffffffff16145b91505092915050565b8273ffffffffffffffffffffffffffffffffffffffff16610f3e8261087d565b73ffffffffffffffffffffffffffffffffffffffff1614610f94576040517f08c379a0000000000000000000000000000000000000000000000000000000008152600401610f8b90612965565b60405180910390fd5b600073ffffffffffffffffffffffffffffffffffffffff168273ffffffffffffffffffffffffffffffffffffffff161415611004576040517f08c379a0000000000000000000000000000000000000000000000000000000008152600401610ffb906129a5565b60405180910390fd5b61100f838383611777565b61101a600082610dd0565b6001600360008573ffffffffffffffffffffffffffffffffffffffff1673ffffffffffffffffffffffffffffffffffffffff168152602001908152602001600020600082825461106a9190612cc0565b925050819055506001600360008473ffffffffffffffffffffffffffffffffffffffff1673ffffffffffffffffffffffffffffffffffffffff16815260200190815260200160002060008282546110c19190612bdf565b92505081905550816002600083815260200190815260200160002060006101000a81548173ffffffffffffffffffffffffffffffffffffffff021916908373ffffffffffffffffffffffffffffffffffffffff160217905550808273ffffffffffffffffffffffffffffffffffffffff168473ffffffffffffffffffffffffffffffffffffffff167fddf252ad1be2c89b69c2b068fc378daa952ba7f163c4a11628f55a4df523b3ef60405160405180910390a4611180838383611787565b505050565b61118d610dc8565b73ffffffffffffffffffffffffffffffffffffffff166111ab6109fb565b73ffffffffffffffffffffffffffffffffffffffff1614611201576040517f08c379a00000000000000000000000000000000000000000000000000000000081526004016111f890612a45565b60405180910390fd5b565b6000600a60009054906101000a900473ffffffffffffffffffffffffffffffffffffffff16905081600a60006101000a81548173ffffffffffffffffffffffffffffffffffffffff021916908373ffffffffffffffffffffffffffffffffffffffff1602179055508173ffffffffffffffffffffffffffffffffffffffff168173ffffffffffffffffffffffffffffffffffffffff167f8be0079c531659141344cd1fd0a4f28419497f9722a3daafe3b4186f6b6457e060405160405180910390a35050565b8173ffffffffffffffffffffffffffffffffffffffff168373ffffffffffffffffffffffffffffffffffffffff161415611338576040517f08c379a000000000000000000000000000000000000000000000000000000000815260040161132f906129c5565b60405180910390fd5b80600560008573ffffffffffffffffffffffffffffffffffffffff1673ffffffffffffffffffffffffffffffffffffffff16815260200190815260200160002060008473ffffffffffffffffffffffffffffffffffffffff1673ffffffffffffffffffffffffffffffffffffffff16815260200190815260200160002060006101000a81548160ff0219169083151502179055508173ffffffffffffffffffffffffffffffffffffffff168373ffffffffffffffffffffffffffffffffffffffff167f17307eab39ab6107e8899845ad3d59bd9653f200f220920489ca2b5937696c318360405161142991906128c8565b60405180910390a3505050565b611441848484610f1e565b61144d8484848461178c565b61148c576040517f08c379a000000000000000000000000000000000000000000000000000000000815260040161148390612925565b60405180910390fd5b50505050565b60606000825114156114b557604051806020016040528060008152509050611606565b60006040518060600160405280604081526020016133b560409139905060006003600285516114e49190612bdf565b6114ee9190612c35565b60046114fa9190612c66565b9050600060208261150b9190612bdf565b67ffffffffffffffff81111561152457611523612ef8565b5b6040519080825280601f01601f1916602001820160405280156115565781602001600182028036833780820191505090505b509050818152600183018586518101602084015b818310156115c5576003830192508251603f8160121c168501518253600182019150603f81600c1c168501518253600182019150603f8160061c168501518253600182019150603f811685015182536001820191505061156a565b6003895106600181146115df57600281146115ef576115fa565b613d3d60f01b60028303526115fa565b603d60f81b60018303525b50505050508093505050505b919050565b611625828260405180602001604052806000815250611923565b5050565b60007f80ac58cd000000000000000000000000000000000000000000000000000000007bffffffffffffffffffffffffffffffffffffffffffffffffffffffff1916827bffffffffffffffffffffffffffffffffffffffffffffffffffffffff191614806116f457507f5b5e139f000000000000000000000000000000000000000000000000000000007bffffffffffffffffffffffffffffffffffffffffffffffffffffffff1916827bffffffffffffffffffffffffffffffffffffffffffffffffffffffff1916145b8061170457506117038261197e565b5b9050919050565b60008073ffffffffffffffffffffffffffffffffffffffff166002600084815260200190815260200160002060009054906101000a900473ffffffffffffffffffffffffffffffffffffffff1673ffffffffffffffffffffffffffffffffffffffff1614159050919050565b6117828383836119e8565b505050565b505050565b60006117ad8473ffffffffffffffffffffffffffffffffffffffff16611afc565b15611916578373ffffffffffffffffffffffffffffffffffffffff1663150b7a026117d6610dc8565b8786866040518563ffffffff1660e01b81526004016117f8949392919061287c565b602060405180830381600087803b15801561181257600080fd5b505af192505050801561184357506040513d601f19601f82011682018060405250810190611840919061244f565b60015b6118c6573d8060008114611873576040519150601f19603f3d011682016040523d82523d6000602084013e611878565b606091505b506000815114156118be576040517f08c379a00000000000000000000000000000000000000000000000000000000081526004016118b590612925565b60405180910390fd5b805181602001fd5b63150b7a0260e01b7bffffffffffffffffffffffffffffffffffffffffffffffffffffffff1916817bffffffffffffffffffffffffffffffffffffffffffffffffffffffff19161491505061191b565b600190505b949350505050565b61192d8383611b1f565b61193a600084848461178c565b611979576040517f08c379a000000000000000000000000000000000000000000000000000000000815260040161197090612925565b60405180910390fd5b505050565b60007f01ffc9a7000000000000000000000000000000000000000000000000000000007bffffffffffffffffffffffffffffffffffffffffffffffffffffffff1916827bffffffffffffffffffffffffffffffffffffffffffffffffffffffff1916149050919050565b6119f3838383611cf9565b600073ffffffffffffffffffffffffffffffffffffffff168373ffffffffffffffffffffffffffffffffffffffff161415611a3657611a3181611cfe565b611a75565b8173ffffffffffffffffffffffffffffffffffffffff168373ffffffffffffffffffffffffffffffffffffffff1614611a7457611a738382611d47565b5b5b600073ffffffffffffffffffffffffffffffffffffffff168273ffffffffffffffffffffffffffffffffffffffff161415611ab857611ab381611eb4565b611af7565b8273ffffffffffffffffffffffffffffffffffffffff168273ffffffffffffffffffffffffffffffffffffffff1614611af657611af58282611f85565b5b5b505050565b6000808273ffffffffffffffffffffffffffffffffffffffff163b119050919050565b600073ffffffffffffffffffffffffffffffffffffffff168273ffffffffffffffffffffffffffffffffffffffff161415611b8f576040517f08c379a0000000000000000000000000000000000000000000000000000000008152600401611b8690612a25565b60405180910390fd5b611b988161170b565b15611bd8576040517f08c379a0000000000000000000000000000000000000000000000000000000008152600401611bcf90612985565b60405180910390fd5b611be460008383611777565b6001600360008473ffffffffffffffffffffffffffffffffffffffff1673ffffffffffffffffffffffffffffffffffffffff1681526020019081526020016000206000828254611c349190612bdf565b92505081905550816002600083815260200190815260200160002060006101000a81548173ffffffffffffffffffffffffffffffffffffffff021916908373ffffffffffffffffffffffffffffffffffffffff160217905550808273ffffffffffffffffffffffffffffffffffffffff16600073ffffffffffffffffffffffffffffffffffffffff167fddf252ad1be2c89b69c2b068fc378daa952ba7f163c4a11628f55a4df523b3ef60405160405180910390a4611cf560008383611787565b5050565b505050565b6008805490506009600083815260200190815260200160002081905550600881908060018154018082558091505060019003906000526020600020016000909190919091505550565b60006001611d548461092f565b611d5e9190612cc0565b9050600060076000848152602001908152602001600020549050818114611e43576000600660008673ffffffffffffffffffffffffffffffffffffffff1673ffffffffffffffffffffffffffffffffffffffff168152602001908152602001600020600084815260200190815260200160002054905080600660008773ffffffffffffffffffffffffffffffffffffffff1673ffffffffffffffffffffffffffffffffffffffff168152602001908152602001600020600084815260200190815260200160002081905550816007600083815260200190815260200160002081905550505b6007600084815260200190815260200160002060009055600660008573ffffffffffffffffffffffffffffffffffffffff1673ffffffffffffffffffffffffffffffffffffffff16815260200190815260200160002060008381526020019081526020016000206000905550505050565b60006001600880549050611ec89190612cc0565b9050600060096000848152602001908152602001600020549050600060088381548110611ef857611ef7612ec9565b5b906000526020600020015490508060088381548110611f1a57611f19612ec9565b5b906000526020600020018190555081600960008381526020019081526020016000208190555060096000858152602001908152602001600020600090556008805480611f6957611f68612e9a565b5b6001900381819060005260206000200160009055905550505050565b6000611f908361092f565b905081600660008573ffffffffffffffffffffffffffffffffffffffff1673ffffffffffffffffffffffffffffffffffffffff168152602001908152602001600020600083815260200190815260200160002081905550806007600084815260200190815260200160002081905550505050565b82805461201090612daa565b90600052602060002090601f0160209004810192826120325760008555612079565b82601f1061204b57805160ff1916838001178555612079565b82800160010185558215612079579182015b8281111561207857825182559160200191906001019061205d565b5b509050612086919061208a565b5090565b5b808211156120a357600081600090555060010161208b565b5090565b60006120ba6120b584612b25565b612b00565b9050828152602081018484840111156120d6576120d5612f2c565b5b6120e1848285612d68565b509392505050565b60006120fc6120f784612b56565b612b00565b90508281526020810184848401111561211857612117612f2c565b5b612123848285612d68565b509392505050565b60008135905061213a81613358565b92915050565b60008135905061214f8161336f565b92915050565b60008135905061216481613386565b92915050565b60008151905061217981613386565b92915050565b600082601f83011261219457612193612f27565b5b81356121a48482602086016120a7565b91505092915050565b600082601f8301126121c2576121c1612f27565b5b81356121d28482602086016120e9565b91505092915050565b6000813590506121ea8161339d565b92915050565b60006020828403121561220657612205612f36565b5b60006122148482850161212b565b91505092915050565b6000806040838503121561223457612233612f36565b5b60006122428582860161212b565b92505060206122538582860161212b565b9150509250929050565b60008060006060848603121561227657612275612f36565b5b60006122848682870161212b565b93505060206122958682870161212b565b92505060406122a6868287016121db565b9150509250925092565b600080600080608085870312156122ca576122c9612f36565b5b60006122d88782880161212b565b94505060206122e98782880161212b565b93505060406122fa878288016121db565b925050606085013567ffffffffffffffff81111561231b5761231a612f31565b5b6123278782880161217f565b91505092959194509250565b6000806040838503121561234a57612349612f36565b5b60006123588582860161212b565b925050602061236985828601612140565b9150509250929050565b6000806040838503121561238a57612389612f36565b5b60006123988582860161212b565b92505060206123a9858286016121db565b9150509250929050565b6000806000606084860312156123cc576123cb612f36565b5b60006123da8682870161212b565b93505060206123eb868287016121db565b925050604084013567ffffffffffffffff81111561240c5761240b612f31565b5b612418868287016121ad565b9150509250925092565b60006020828403121561243857612437612f36565b5b600061244684828501612155565b91505092915050565b60006020828403121561246557612464612f36565b5b60006124738482850161216a565b91505092915050565b60006020828403121561249257612491612f36565b5b60006124a0848285016121db565b91505092915050565b6124b281612cf4565b82525050565b6124c181612d06565b82525050565b60006124d282612b9c565b6124dc8185612bb2565b93506124ec818560208601612d77565b6124f581612f3b565b840191505092915050565b600061250b82612ba7565b6125158185612bc3565b9350612525818560208601612d77565b61252e81612f3b565b840191505092915050565b600061254482612ba7565b61254e8185612bd4565b935061255e818560208601612d77565b80840191505092915050565b6000815461257781612daa565b6125818186612bd4565b9450600182166000811461259c57600181146125ad576125e0565b60ff198316865281860193506125e0565b6125b685612b87565b60005b838110156125d8578154818901526001820191506020810190506125b9565b838801955050505b50505092915050565b60006125f6602b83612bc3565b915061260182612f4c565b604082019050919050565b6000612619603283612bc3565b915061262482612f9b565b604082019050919050565b600061263c602683612bc3565b915061264782612fea565b604082019050919050565b600061265f602583612bc3565b915061266a82613039565b604082019050919050565b6000612682601c83612bc3565b915061268d82613088565b602082019050919050565b60006126a5602483612bc3565b91506126b0826130b1565b604082019050919050565b60006126c8601983612bc3565b91506126d382613100565b602082019050919050565b60006126eb602983612bc3565b91506126f682613129565b604082019050919050565b600061270e603e83612bc3565b915061271982613178565b604082019050919050565b6000612731602083612bc3565b915061273c826131c7565b602082019050919050565b6000612754602083612bc3565b915061275f826131f0565b602082019050919050565b6000612777601883612bc3565b915061278282613219565b602082019050919050565b600061279a602183612bc3565b91506127a582613242565b604082019050919050565b60006127bd601d83612bd4565b91506127c882613291565b601d82019050919050565b60006127e0602c83612bc3565b91506127eb826132ba565b604082019050919050565b6000612803602e83612bc3565b915061280e82613309565b604082019050919050565b61282281612d5e565b82525050565b6000612834828461256a565b915081905092915050565b600061284a826127b0565b91506128568284612539565b915081905092915050565b600060208201905061287660008301846124a9565b92915050565b600060808201905061289160008301876124a9565b61289e60208301866124a9565b6128ab6040830185612819565b81810360608301526128bd81846124c7565b905095945050505050565b60006020820190506128dd60008301846124b8565b92915050565b600060208201905081810360008301526128fd8184612500565b905092915050565b6000602082019050818103600083015261291e816125e9565b9050919050565b6000602082019050818103600083015261293e8161260c565b9050919050565b6000602082019050818103600083015261295e8161262f565b9050919050565b6000602082019050818103600083015261297e81612652565b9050919050565b6000602082019050818103600083015261299e81612675565b9050919050565b600060208201905081810360008301526129be81612698565b9050919050565b600060208201905081810360008301526129de816126bb565b9050919050565b600060208201905081810360008301526129fe816126de565b9050919050565b60006020820190508181036000830152612a1e81612701565b9050919050565b60006020820190508181036000830152612a3e81612724565b9050919050565b60006020820190508181036000830152612a5e81612747565b9050919050565b60006020820190508181036000830152612a7e8161276a565b9050919050565b60006020820190508181036000830152612a9e8161278d565b9050919050565b60006020820190508181036000830152612abe816127d3565b9050919050565b60006020820190508181036000830152612ade816127f6565b9050919050565b6000602082019050612afa6000830184612819565b92915050565b6000612b0a612b1b565b9050612b168282612ddc565b919050565b6000604051905090565b600067ffffffffffffffff821115612b4057612b3f612ef8565b5b612b4982612f3b565b9050602081019050919050565b600067ffffffffffffffff821115612b7157612b70612ef8565b5b612b7a82612f3b565b9050602081019050919050565b60008190508160005260206000209050919050565b600081519050919050565b600081519050919050565b600082825260208201905092915050565b600082825260208201905092915050565b600081905092915050565b6000612bea82612d5e565b9150612bf583612d5e565b9250827fffffffffffffffffffffffffffffffffffffffffffffffffffffffffffffffff03821115612c2a57612c29612e0d565b5b828201905092915050565b6000612c4082612d5e565b9150612c4b83612d5e565b925082612c5b57612c5a612e3c565b5b828204905092915050565b6000612c7182612d5e565b9150612c7c83612d5e565b9250817fffffffffffffffffffffffffffffffffffffffffffffffffffffffffffffffff0483118215151615612cb557612cb4612e0d565b5b828202905092915050565b6000612ccb82612d5e565b9150612cd683612d5e565b925082821015612ce957612ce8612e0d565b5b828203905092915050565b6000612cff82612d3e565b9050919050565b60008115159050919050565b60007fffffffff0000000000000000000000000000000000000000000000000000000082169050919050565b600073ffffffffffffffffffffffffffffffffffffffff82169050919050565b6000819050919050565b82818337600083830152505050565b60005b83811015612d95578082015181840152602081019050612d7a565b83811115612da4576000848401525b50505050565b60006002820490506001821680612dc257607f821691505b60208210811415612dd657612dd5612e6b565b5b50919050565b612de582612f3b565b810181811067ffffffffffffffff82111715612e0457612e03612ef8565b5b80604052505050565b7f4e487b7100000000000000000000000000000000000000000000000000000000600052601160045260246000fd5b7f4e487b7100000000000000000000000000000000000000000000000000000000600052601260045260246000fd5b7f4e487b7100000000000000000000000000000000000000000000000000000000600052602260045260246000fd5b7f4e487b7100000000000000000000000000000000000000000000000000000000600052603160045260246000fd5b7f4e487b7100000000000000000000000000000000000000000000000000000000600052603260045260246000fd5b7f4e487b7100000000000000000000000000000000000000000000000000000000600052604160045260246000fd5b600080fd5b600080fd5b600080fd5b600080fd5b6000601f19601f8301169050919050565b7f455243373231456e756d657261626c653a206f776e657220696e646578206f7560008201527f74206f6620626f756e6473000000000000000000000000000000000000000000602082015250565b7f4552433732313a207472616e7366657220746f206e6f6e20455243373231526560008201527f63656976657220696d706c656d656e7465720000000000000000000000000000602082015250565b7f4f776e61626c653a206e6577206f776e657220697320746865207a65726f206160008201527f6464726573730000000000000000000000000000000000000000000000000000602082015250565b7f4552433732313a207472616e736665722066726f6d20696e636f72726563742060008201527f6f776e6572000000000000000000000000000000000000000000000000000000602082015250565b7f4552433732313a20746f6b656e20616c7265616479206d696e74656400000000600082015250565b7f4552433732313a207472616e7366657220746f20746865207a65726f2061646460008201527f7265737300000000000000000000000000000000000000000000000000000000602082015250565b7f4552433732313a20617070726f766520746f2063616c6c657200000000000000600082015250565b7f4552433732313a2061646472657373207a65726f206973206e6f74206120766160008201527f6c6964206f776e65720000000000000000000000000000000000000000000000602082015250565b7f4552433732313a20617070726f76652063616c6c6572206973206e6f7420746f60008201527f6b656e206f776e6572206e6f7220617070726f76656420666f7220616c6c0000602082015250565b7f4552433732313a206d696e7420746f20746865207a65726f2061646472657373600082015250565b7f4f776e61626c653a2063616c6c6572206973206e6f7420746865206f776e6572600082015250565b7f4552433732313a20696e76616c696420746f6b656e2049440000000000000000600082015250565b7f4552433732313a20617070726f76616c20746f2063757272656e74206f776e6560008201527f7200000000000000000000000000000000000000000000000000000000000000602082015250565b7f646174613a6170706c69636174696f6e2f6a736f6e3b6261736536342c000000600082015250565b7f455243373231456e756d657261626c653a20676c6f62616c20696e646578206f60008201527f7574206f6620626f756e64730000000000000000000000000000000000000000602082015250565b7f4552433732313a2063616c6c6572206973206e6f7420746f6b656e206f776e6560008201527f72206e6f7220617070726f766564000000000000000000000000000000000000602082015250565b61336181612cf4565b811461336c57600080fd5b50565b61337881612d06565b811461338357600080fd5b50565b61338f81612d12565b811461339a57600080fd5b50565b6133a681612d5e565b81146133b157600080fd5b5056fe4142434445464748494a4b4c4d4e4f505152535455565758595a6162636465666768696a6b6c6d6e6f707172737475767778797a303132333435363738392b2fa264697066735822122015882d62bdebd3b28e9224276cf8ad09b5f1d96f9cfe81dd90eba749bcd5694264736f6c63430008070033",
  "linkReferences": {},
  "deployedLinkReferences": {}
}